:10000000CBC00000E4C00000E2C00000E0C000007F
:10001000DEC00000DCC00000DAC00000D8C0000074
:10002000D6C00000D4C00000A6C10000C5C10000B9
:10003000CEC00000CCC00000CAC00000C8C0000094
:10004000C6C00000C4C00000C2C00000C0C00000A4
:10005000BEC00000BCC00000BAC00000B8C00000B4
:10006000B6C00000B4C00000B2C00000B0C00000C4
:10007000AEC00000ACC00000AAC00000A8C00000D4
:10008000A6C00000A4C00000A2C00000A0C00000E4
:100090009EC000009CC000009AC0000098C00000F4
:1000A00096C0000094C0000092C000007F7F000056
:1000B0000001000080011200020000250122002141
:1000C0000000370109002200004701390003000049
:1000D0002101040103090411010E02030904E100D6
:1000E0002E2E035300650067006100200047006565
:1000F000006E006500730069007300200043006F0C
:10010000006E0076006500720074006500720000E9
:10011000000E035A00650072006B0065007200005B
:1001200000040309040902220001010080320904CD
:100130000000010300000009211101000122390023
:100140000705810340000A050115000904A1010506
:1001500001750826FF0015000901A10009300931C9
:1001600095028102C005091901290A1500250175AA
:1001700001950A550065008102950175068103C04D
:100180001201100100000040C016DC27000101022E
:10019000000101C13600000011241FBECFEFDAE0DC
:1001A000DEBFCDBF11E0A0E0B1E0E8E4F8E002C0BE
:1001B00005900D92AA31B107D9F721E0AAE1B1E08B
:1001C00001C01D92AE32B207E1F752D03BC318CF47
:1001D00080912C019091220190FB80F99091230154
:1001E00090FB81F99091240190FB82F99091260176
:1001F00090FB83F99091270190FB84F9909128015D
:1002000090FB85F980932C0180912D01909129011B
:1002100090FB80F99091250190FB81F980932D014D
:1002200080911F01882371F010922A018091200192
:10023000811113C080912101811116C08FE7809335
:100240002B0154C080911E01882351F08FEF8093C1
:100250002A0180912001882369F310922B0146C066
:100260008FE780932A01E2CF8FEF80932B013EC06E
:1002700080E8809361001092610028D216D02CD0C3
:100280008823E9F32FEF83ED90E3215080409040E5
:10029000E1F700C0000023D01ED29ADF8FE39CE973
:1002A0000197F1F700C00000F6CF81E08093D700FE
:1002B00080EA8093D80082E189BD09B400FEFDCFB9
:1002C00080E98093D8001092E00010921B018CE02E
:1002D0008093E2007894089580911B01089544E092
:1002E00050E06CEA70E08AE291E0A3C280911B01C9
:1002F000882309F43EC08FB7F89491E09093E90009
:100300002091E4002E5C9091E80095FD1CC08FBF09
:1003100080911B01882369F18091E400821749F1E3
:1003200031E009C08FBF80911B01882311F18091BA
:10033000E4008217F1F08FB7F8943093E9009091C0
:10034000E80095FFEFCF90912A019093F1009091F2
:100350002B019093F10090912C019093F1009091DA
:100360002D019093F1009AE39093E8008FBF80E015
:1003700008958FEF08951F920F920FB60F921124D8
:100380008F938091E1001092E10083FF0FC01092E3
:10039000E90081E08093EB001092EC0082E380930F
:1003A000ED0088E08093F00010921B018F910F9078
:1003B0000FBE0F901F9018951F920F920FB60F92BD
:1003C00011242F933F934F935F936F937F938F935A
:1003D0009F93AF93BF93CF93EF93FF931092E90056
:1003E0008091E80083FF40C06091F1008091F100AE
:1003F0002091F1009091F10030E0392B4091F10013
:100400009091F10050E0592B7091F100C091F100F2
:1004100092EF9093E8008630D1F0853009F4E6C081
:100420008930B9F1883009F45DC08111B8C080917C
:10043000E80080FFFCCF623809F438C180E0809387
:10044000F1001092F1008EEF8093E80010C067E099
:1004500080EB90E0FC01A591B4912A173B0709F4C9
:100460005CC007966150B1F781E28093EB00FF9189
:10047000EF91CF91BF91AF919F918F917F916F91AC
:100480005F914F913F912F910F900FBE0F901F9052
:10049000189561112AC020931B018EEF8093E8000C
:1004A00081E022E931E08093E900A9014F5F5F4FCD
:1004B000F90194919093EB00992309F4F5C0FA01A6
:1004C00044914093EC003196E4912D5F3F4FE093CF
:1004D000ED008F5F853039F78EE18093EA0010924E
:1004E000EA00C5CF603809F48CC0452B09F0BCCFB9
:1004F000613A09F4A2C0613209F0B6CF893009F43B
:100500008CC08A3009F4DCC08B3009F0ADCF209369
:1005100000018EEF8093E800AACFFC013296A591EE
:10052000B4914A175B0709F09CCFFC0134964591C2
:100530005491FC0136962491872F90E09C2B8F3F9D
:10054000910511F008F076C0821708F471C06EEFC3
:100550008091E800982F9570D9F382FD88CF322FD3
:100560002134C0F030E4FA01832F94919093F1008C
:10057000815031968111F9CF8FEF830F90E0019672
:10058000480F591F231B6093E8002111E1CF30343D
:10059000F9F26DCF2111E7CF6093E80068CF982F73
:1005A0009D7F913009F0A1CF623009F09ECF232BBF
:1005B00009F05ACF4F779FEF940F943008F054CF43
:1005C0009EEF9093E8004093E900833009F44CCF0C
:1005D00089E18093EB0081E090E001C0880F4A95AB
:1005E000EAF78093EA001092EA0041CF8EEF809301
:1005F000E8008091E80080FFFCCF20682093E300B2
:1006000036CF8091E80080FFFCCF80911B01809362
:10061000F1008EEF8093E8002ACF8091E80082FFFE
:10062000FCCF8BEF8093E8008EEF8093E8001FCF24
:10063000282F8DCF8FEF90E087CF813089F08230E7
:1006400039F1833009F010CF8091E80080FFFCCFB2
:10065000809100018093F1008EEF8093E80007CF36
:100660008091E80080FFFCCF80912A018093F10007
:1006700080912B018093F10080912C018093F100F7
:1006800080912D018093F1008EEF8093E800EFCEF2
:100690008091E80080FFFCCF80911A018093F100E7
:1006A0008EEF8093E800E3CE9A0113CF4093E900E8
:1006B0008091EB0085FB882780F91092E900BFCE7E
:1006C00030931A018EEF8093E800D1CE80E284B996
:1006D0008FEF85B908952D9A8FE891E00197F1F792
:1006E00000C0000043B1A1E1B1E020E030E050E003
:1006F000ED91EE2381F0F0E0E35EFE4FCA01022EA1
:1007000002C0959587950A94E2F78170992761E078
:100710008627817080832F5F3F4F2830310541F756
:100720002D988FE891E00197F1F700C0000083B1A8
:10073000837009F041C043B1A9E0B1E020E030E0AE
:1007400050E0ED91EE2381F0F0E0E35EFE4FCA0150
:10075000022E02C0959587950A94E2F78170992739
:1007600061E08627817080832F5F3F4F28303105FD
:1007700041F72D9A8FE891E00197F1F700C0000052
:100780002D988FE891E00197F1F700C000002D9AB5
:100790008FE891E00197F1F700C000002D988FE8F5
:1007A00091E00197F1F700C0000083B18F7089F0EC
:1007B00081E080931C0108958091230180932201A0
:1007C00080912401809323011092240110921C0136
:1007D000089582E080931C012D9A8FE891E00197A3
:1007E000F1F700C0000043B1A1E0B1E020E030E04B
:1007F00050E0ED91EE2381F0F0E0E35EFE4FCA01A0
:10080000022E02C0959587950A94E2F78170992788
:1008100061E08627817080832F5F3F4F283031054C
:1008200041F72D988FE891E00197F1F700C00000A3
:100830000895FB01DC0102C005900D92415050402B
:08084000D8F70895F894FFCFEA
:10084800010C090A0B000000000000000008000568
:0A085800000102040307000600007F
:00000001FF
