:10000000BFC00000D8C00000D6C00000D4C00000AF
:10001000D2C00000D0C00000CEC00000CCC00000A4
:10002000CAC00000C8C0000010C200006AC20000C0
:10003000C2C00000C0C00000BEC00000BCC00000C4
:10004000BAC00000B8C00000B6C00000B4C00000D4
:10005000B2C00000B0C00000AEC00000ACC00000E4
:10006000AAC00000A8C00000A6C00000A4C00000F4
:10007000A2C00000A0C000009EC000009CC0000004
:100080009AC0000098C0000096C0000094C0000014
:1000900092C0000090C000008EC000008CC0000024
:1000A0008AC0000088C0000086C000000001000077
:1000B000680112000200000701220022000029014D
:1000C0003F002100001901090003000003010401A1
:1000D000030904F1001002030904DD001212034BAE
:1000E000006500790062006F00610072006400002A
:1000F0000010034D00660067004E0061006D006552
:100100000000000403090409022200010100C032BA
:10011000090400000103010100092111010001226D
:100120003F000705830308000105010906A10175C9
:10013000019508050719E029E715002501810295B9
:1001400001750881039505750105081901290591B7
:10015000029501750391039506750815002568053C
:1001600007190029688100C0120100020000002068
:10017000C0167C04000101020001000001C106005C
:1001800011241FBECFEFDAE0DEBFCDBF11E0A0E04B
:10019000B1E0EAEBF7E002C005900D92A832B1079A
:1001A000D9F721E0A8E2B1E001C01D92A034B20766
:1001B000E1F729D000C324CFCF93DF93109236010B
:1001C00010923701109238011092390110923A01C1
:1001D00010923B01E9E2F1E0ABE1B1E090E0819106
:1001E000882349F0963038F4C92FD0E0CA5CDE4F3E
:1001F0008C9188839F5F119681E0E533F80779F74A
:10020000DF91CF91EAC080E8809361001092610095
:1002100080E284B98FEF85B9C6D0DCD08823E9F3BA
:100220002FEF63ED80E3215060408040E1F700C094
:100230000000C8E2D1E01DE0FE01212F11922A95B5
:10024000E9F72D9A8FE891E00197F1F700C00000DF
:1002500043B1A2E1B1E020E030E050E0ED91EE23C7
:1002600081F0F0E0E85DFE4FCA01022E02C09595D4
:1002700087950A94E2F78170992761E0862781705B
:1002800080832F5F3F4F2830310541F72D988FE84D
:1002900091E00197F1F700C0000083B1837009F08D
:1002A00045C043B1AAE0B1E020E030E050E0ED917C
:1002B000EE2381F0F0E0E85DFE4FCA01022E02C09D
:1002C000959587950A94E2F78170992761E08627D2
:1002D000817080832F5F3F4F2830310541F72D9A81
:1002E0008FE891E00197F1F700C000002D98EFE84A
:1002F000F1E03197F1F700C000002D9A8FE891E00E
:100300000197F1F700C000002D98EFE8F1E0319778
:10031000F1F700C0000083B18F7099F04DDFEFE37B
:10032000FCE93197F1F700C0000086CF80912E01E3
:1003300080932D0180912F0180932E0110922F0127
:10034000EDCF2D9A8FE891E00197F1F700C0000002
:1003500043B1A2E0B1E020E030E050E0ED91EE23C7
:1003600081F0F0E0E85DFE4FCA01022E02C09595D3
:1003700087950A94E2F78170992761E0862781705A
:1003800080832F5F3F4F2830310541F72D988FE84C
:1003900091E00197F1F700C00000C0CF8091E80024
:1003A00080FFFCCF089581E08093D70080EA80939E
:1003B000D80082E189BD09B400FEFDCF80E98093B9
:1003C000D8001092E00010923F018CE08093E20090
:1003D0007894089580913F01089580913F018111A3
:1003E00002C08FEF08958FB7F89493E09093E900DF
:1003F0009091E4009E5C23E03091E80035FD0EC052
:100400008FBF80913F01882361F38091E4008917B9
:1004100041F38FB7F8942093E900EECF90913C011F
:100420009093F1001092F100E6E3F1E096E09E0F68
:1004300021912093F1009E13FBCF9AE39093E80063
:1004400010923E018FBF80E008951F920F920FB669
:100450000F9211248F939F93EF93FF938091E1006C
:100460001092E10083FF0FC01092E90091E0909399
:10047000EB001092EC0092E29093ED0098E09093E4
:10048000F00010923F0182FF33C080913F0188232A
:1004900079F180910001882359F180913D018F5FAE
:1004A00080933D01837021F583E08093E900809182
:1004B000E80085FF1DC080913E018F5F80933E0163
:1004C00090910001891314C010923E0180913C016B
:1004D0008093F1001092F100E6E3F1E086E08E0FE8
:1004E00091919093F1008E13FBCF8AE38093E80003
:1004F000FF91EF919F918F910F900FBE0F901F90E2
:1005000018951F920F920FB60F921124EF92FF923F
:100510000F931F932F933F934F935F936F937F930B
:100520008F939F93AF93BF93EF93FF93CF93DF93FB
:100530001F92CDB7DEB71092E9008091E80083FFEB
:100540001FC19091F1008091F1003091F100209154
:10055000F100E32EF12CF22A0091F1002091F1003C
:1005600010E0122B2091F1006091F10032EF3093F6
:10057000E800863009F046C037E08CEA90E0FC01E4
:10058000459154914E155F0539F4FC013296459121
:1005900054914017510721F00796315081F7F0C070
:1005A000FC01349645915491FC013696849130E0DB
:1005B000362B2F3F310519F010F02FEF30E02817C0
:1005C00008F4822F3EEF9091E800292F2570D9F38F
:1005D00092FDD9C0982F813208F090E2FA01292FBC
:1005E000222331F064916093F10021503196F8CFCD
:1005F000490F511D891B3093E8008111E4CF9032DF
:1006000011F3C1C0853049F48EEF8093E800C6DE57
:100610008E2D80688093E300B6C0893039F5911142
:100620006AC0E0923F018EEF8093E80041E08AE7E4
:1006300091E04093E9009C012F5F3F4FFC015491F2
:100640005093EB00552359F0F90124912093EC00CD
:100650009C012D5F3F4F319684918093ED004F5F59
:10066000453011F0C901E5CF8EE140C0883039F442
:10067000903809F040C092DE80913F015FC0811147
:1006800015C099838BDE9981923851F40093E9006B
:100690008091EB0085FB882780F91092E90001C06A
:1006A00080E08093F1001092F10066C0282F2D7F2A
:1006B000213009F59230F9F4EF2809F061C00F7785
:1006C0009FEF900F943008F05BC09EEF9093E8008E
:1006D0000093E900833009F453C089E18093EB0073
:1006E00081E090E001C0880F0A95EAF78093EA0064
:1006F0001092EA0048C0012B09F042C0913A09F576
:10070000813089F44BDE80913C018093F10010929E
:10071000F100E6E3F1E086E08E0F91919093F10015
:100720008E13FBCF29C0823021F438DE8091000186
:1007300005C0833029F532DE809101018093F100FC
:100740001BC09132E9F4893061F48091E80082FFA6
:10075000FCCF8091F100809335018BEF8093E8000E
:100760000BC08A3029F4F092000110923E0104C0BF
:100770008B3031F4E09201018EEF8093E80003C0EA
:1007800081E28093EB000F90DF91CF91FF91EF9189
:10079000BF91AF919F918F917F916F915F914F9199
:1007A0003F912F911F910F91FF90EF900F900FBEEF
:0A07B0000F901F901895F894FFCFEA
:1007BA007D010C090A0B000000000000000008007F
:1007CA0005000102040307000600004F5052511DA4
:0807DA001B06280416072C0081
:00000001FF
