:10000000B4C00000C2C00000C0C00000BEC00000FC
:10001000BCC00000BAC00000B8C00000B6C00000FC
:10002000B4C00000B2C0000027C1000064C10000DD
:10003000ACC00000AAC00000A8C00000A6C000001C
:10004000A4C00000A2C00000A0C000009EC000002C
:100050009CC000009AC0000098C0000096C000003C
:1000600094C0000092C0000090C000008EC000004C
:100070008CC000008AC0000088C0000086C000005C
:1000800084C0000082C0000080C000007EC000006C
:100090007CC000007AC0000078C0000076C000007C
:1000A00074C0000072C0000070C000000A000001AF
:1000B0000000520112000200001B01220022000079
:1000C0003D0115002100002D01090003000017016A
:1000D000040103090401011402030904DF002020C4
:1000E0000359006F00750072002000550053004254
:1000F0000020004400650076006900630065000090
:1001000000140359006F007500720020004E00615A
:10011000006D0065000000040309040902220001CB
:100120000100C03209040000010300000009211190
:10013000010001221500070583032000010631FF9D
:100140000974A1537508150026FF009520097581D3
:1001500002C01201000200000020C0167904000154
:1001600001020001000001C1260011241FBECFEFD3
:10017000DAE0DEBFCDBF21E0A0E0B1E001C01D921A
:10018000A330B207E1F702D009C23ACF80E88093EA
:1001900061001092610014B88FEF85B914D083B15B
:1001A000F4D18CEA90E0D6D12FEF89E698E1215086
:1001B00080409040E1F700C00000F1CF8091E8005E
:1001C00080FFFCCF089581E08093D70080EA809380
:1001D000D80082E189BD09B400FEFDCF80E980939B
:1001E000D8001092E000109202018CE08093E200AF
:1001F0007894089590910201992371F09FB7F89433
:1002000023E02093E90020910001222349F020916E
:10021000E80025FD03C09FBF8FEF089510920001F5
:100220002091E4002C5F33E04091E80045FD12C0CE
:100230009FBF9091E400921304C081E0809300017D
:10024000EBCF90910201992339F39FB7F894309343
:10025000E900EACF8093F1008091E80085FD06C0B7
:100260008AE38093E8001092010103C082E080934A
:1002700001019FBF80E008951F920F920FB60F9269
:1002800011248F939F938091E1001092E10083FFEE
:100290000FC01092E90091E09093EB001092EC00F7
:1002A00092E29093ED0098E09093F000109202019A
:1002B00082FF1AC0809102018823B1F08091010170
:1002C000882391F081508093010181110DC083E05A
:1002D0008093E9008091E80085FF03C01092F1004F
:1002E000F9CF8AE38093E8009F918F910F900FBE22
:1002F0000F901F9018951F920F920FB60F92112416
:10030000EF92FF921F932F933F934F935F936F93BF
:100310007F938F939F93AF93BF93CF93DF93EF938D
:10032000FF931092E9008091E80083FFDDC01091F7
:10033000F1008091F100E090F1009091F100F12C3A
:10034000F92AC091F1009091F100D0E0D92B2091D1
:10035000F1009091F10030E0392B92EF9093E8009A
:10036000863009F044C047E08EEA90E0FC016591D8
:1003700074916E157F0539F4FC0132966591749184
:100380006C177D0721F00796415081F7ADC0FC0145
:10039000349645915491FC01369684912F3F310556
:1003A00019F010F02FEF30E0281708F4822F3EEFFD
:1003B0009091E800292F2570D9F392FDB5C0982FB0
:1003C000813208F090E2FA01292F222331F0649162
:1003D0006093F10021503196F8CF490F511D891BD0
:1003E0003093E8008111E4CF903211F39DC0853045
:1003F00049F48EEF8093E800E1DE8E2D80688093D3
:10040000E30092C0893039F511116EC0E09202010B
:100410008EEF8093E80041E084E691E04093E900AC
:100420009C012F5F3F4FFC0154915093EB005523EB
:1004300059F0F90124912093EC009C012D5F3F4F6E
:10044000319684918093ED004F5F453011F0C901E2
:10045000E5CF8EE140C0883049F4103809F044C03F
:10046000ADDE809102018093F10014C0811116C0AD
:10047000A5DE123851F4C093E9008091EB0085FBB2
:10048000882780F91092E90001C080E08093F10094
:100490001092F1008EEF8093E80046C0813001F1A8
:1004A000833011F5123001F5EF28F1F4CF779FEF8B
:1004B0009C0F9430C8F49EEF9093E800C093E9003D
:1004C000833091F089E18093EB0081E090E001C0FE
:1004D000880FCA95EAF78093EA001092EA0024C0D8
:1004E000123011F3113A21F081E28093EB001CC02D
:1004F000CD2BD1F73EEF8091E800982F9570D9F37E
:1005000082FD12C0822F213208F080E2982F9923B9
:1005100021F01092F1009150FACF281B3093E8009F
:100520002111E9CF803239F3FF91EF91DF91CF9123
:10053000BF91AF919F918F917F916F915F914F91FB
:100540003F912F911F91FF90EF900F900FBE0F9052
:100550001F9018951F93CF93DF93EC01FE01149128
:10056000112341F01A3011F48DE044DE812F42DE78
:100570002196F4CFDF91CF911F9108958A3010F02A
:1005800097E301C090E3890F35CECF93C82F8295B2
:100590008F70F4DF8C2F8F70CF91F0CFF894FFCF56
:00000001FF
