:10000000BFC00000D8C00000D6C00000D4C00000AF
:10001000D2C00000D0C00000CEC00000CCC00000A4
:10002000CAC00000C8C000006AC10000C5C100000D
:10003000C2C00000C0C00000BEC00000BCC00000C4
:10004000BAC00000B8C00000B6C00000B4C00000D4
:10005000B2C00000B0C00000AEC00000ACC00000E4
:10006000AAC00000A8C00000A6C00000A4C00000F4
:10007000A2C00000A0C000009EC000009CC0000004
:100080009AC0000098C0000096C0000094C0000014
:1000900092C0000090C000008EC000008CC0000024
:1000A0008AC0000088C0000086C000000001000077
:1000B000680112000200000701220022000029014D
:1000C0003F002100001901090003000003010401A1
:1000D000030904F1001002030904DD001212034BAE
:1000E000006500790062006F00610072006400002A
:1000F0000010034D00660067004E0061006D006552
:100100000000000403090409022200010100C032BA
:10011000090400000103010100092111010001226D
:100120003F000705830308000105010906A10175C9
:10013000019508050719E029E715002501810295B9
:1001400001750881039505750105081901290591B7
:10015000029501750391039506750815002568053C
:1001600007190029688100C0120100020000002068
:10017000C0167C04000101020001000001C106005C
:1001800011241FBECFEFDAE0DEBFCDBF11E0A0E04B
:10019000B1E0EAE3F8E002C005900D92A832B107A1
:1001A000D9F721E0A8E2B1E001C01D92A134B20765
:1001B000E1F729D040C324CFCF93DF9310922901D8
:1001C00010922A0110922B0110922C0110922D01F5
:1001D00010922E01E5E3F1E0A3E0B1E090E081911F
:1001E000882349F0963038F4C92FD0E0C75DDE4F40
:1001F0008C9188839F5F119681E0E134F80779F74D
:10020000DF91CF9136C080E8809361001092610049
:100210005FD215D02BD08823E9F32FEF83ED90E345
:10022000215080409040E1F700C0000056D2C4DF6A
:100230008FE39CE90197F1F700C00000F7CF81E060
:100240008093D70080EA8093D80082E189BD09B409
:1002500000FEFDCF80E98093D8001092E00010925C
:1002600032018CE08093E20078940895809132010D
:10027000089580913201882309F43FC08FB7F89424
:1002800093E09093E9002091E4002E5C9091E800C7
:1002900095FD1CC08FBF80913201882371F1809140
:1002A000E400821751F133E009C08FBF8091320121
:1002B000882319F18091E4008217F9F08FB7F89440
:1002C0003093E9009091E80095FFEFCF90912F01D6
:1002D0009093F1001092F100E9E2F1E09191909396
:1002E000F10091E0EF32F907C9F79AE39093E80043
:1002F000109231018FBF80E008958FEF08951F9213
:100300000F920FB60F9211248F939F93EF93FF9349
:100310008091E1001092E10083FF0FC01092E9008C
:1003200091E09093EB001092EC0092E29093ED003C
:1003300098E09093F0001092320182FF1FC08091EC
:1003400032018823D9F0809100018823B9F080918F
:1003500030018F5F80933001837081F483E080935C
:10036000E9008091E80085FF09C0809131018F5F2D
:100370008093310190910001891749F0FF91EF912D
:100380009F918F910F900FBE0F901F901895109214
:10039000310180912F018093F1001092F100E9E288
:1003A000F1E081918093F10081E0EF32F807C9F725
:1003B0008AE38093E800E2CF1F920F920FB60F926C
:1003C00011242F933F934F935F936F937F938F935A
:1003D0009F93AF93BF93CF93EF93FF931092E90056
:1003E0008091E80083FF40C06091F1008091F100AE
:1003F0002091F1009091F10030E0392B4091F10013
:100400009091F10050E0592B7091F100C091F100F2
:1004100092EF9093E8008630D1F0853009F4E6C081
:100420008930B9F1883009F45DC08111B8C080917C
:10043000E80080FFFCCF623809F438C180E0809387
:10044000F1001092F1008EEF8093E80010C067E099
:100450008CEA90E0FC01A591B4912A173B0709F4BE
:100460005CC007966150B1F781E28093EB00FF9189
:10047000EF91CF91BF91AF919F918F917F916F91AC
:100480005F914F913F912F910F900FBE0F901F9052
:10049000189561112AC0209332018EEF8093E800F5
:1004A00081E02AE731E08093E900A9014F5F5F4FC7
:1004B000F90194919093EB00992309F4F5C0FA01A6
:1004C00044914093EC003196E4912D5F3F4FE093CF
:1004D000ED008F5F853039F78EE18093EA0010924E
:1004E000EA00C5CF603809F48CC0452B09F0BCCFB9
:1004F000613A09F4A6C0613209F0B6CF893009F437
:100500008CC08A3009F4DCC08B3009F0ADCF209369
:1005100001018EEF8093E800AACFFC013296A591ED
:10052000B4914A175B0709F09CCFFC0134964591C2
:100530005491FC0136962491872F90E09C2B8F3F9D
:10054000910511F008F07AC0821708F475C06EEFBB
:100550008091E800982F9570D9F382FD88CF322FD3
:100560002132C0F030E2FA01832F94919093F10090
:10057000815031968111F9CF8FEF830F90E0019672
:10058000480F591F231B6093E8002111E1CF30323F
:10059000F9F26DCF2111E7CF6093E80068CF982F73
:1005A0009D7F913009F0A1CF623009F09ECF232BBF
:1005B00009F05ACF4F779FEF940F943008F054CF43
:1005C0009EEF9093E8004093E900833009F44CCF0C
:1005D00089E18093EB0081E090E001C0880F4A95AB
:1005E000EAF78093EA001092EA0041CF8EEF809301
:1005F000E8008091E80080FFFCCF20682093E300B2
:1006000036CF8091E80080FFFCCF8091320180934B
:10061000F1008EEF8093E8002ACF8091E80082FFFE
:10062000FCCF8091F100809328018BEF8093E8004C
:100630008EEF8093E8001BCF282F89CF8FEF90E0BB
:1006400083CF813089F0823019F1833009F00CCFEB
:100650008091E80080FFFCCF809101018093F10040
:100660008EEF8093E80003CF8091E80080FFFCCFFD
:1006700080912F018093F1001092F100E9E2F1E006
:1006800081918093F10081E0EF32F807C9F741CF03
:100690008091E80080FFFCCF809100018093F10001
:1006A0008EEF8093E800E3CE9A0113CF4093E900E8
:1006B0008091EB0085FB882780F91092E900BFCE7E
:1006C00030930001109231018EEF8093E800CFCE7D
:1006D00080E284B98FEF85B908952D9A8FE891E073
:1006E0000197F1F700C0000043B1AFE1B1E020E0B5
:1006F00030E050E0ED91EE2381F0F0E0EC5CFE4F55
:10070000CA01022E02C0959587950A94E2F781707E
:10071000992761E08627817080832F5F3F4F2830C3
:10072000310541F72D988FE891E00197F1F700C06E
:10073000000083B1837009F041C043B1A7E1B1E08B
:1007400020E030E050E0ED91EE2381F0F0E0EC5C51
:10075000FE4FCA01022E02C0959587950A94E2F7D2
:100760008170992761E08627817080832F5F3F4FDA
:100770002830310541F72D9A8FE891E00197F1F784
:1007800000C000002D988FE891E00197F1F700C0BC
:1007900000002D9A8FE891E00197F1F700C000006A
:1007A0002D988FE891E00197F1F700C0000083B128
:1007B0008F7089F081E080933301089580913A0130
:1007C0008093390180913B0180933A0110923B0163
:1007D00010923301089582E0809333012D9A8FE8BF
:1007E00091E00197F1F700C0000043B1AFE0B1E044
:1007F00020E030E050E0ED91EE2381F0F0E0EC5CA1
:10080000FE4FCA01022E02C0959587950A94E2F721
:100810008170992761E08627817080832F5F3F4F29
:100820002830310541F72D988FE891E00197F1F7D5
:0A08300000C000000895F894FFCF07
:10083A007D01004F5052511D1B06280416072C0C2F
:10084A00090A0B0000000000000000080005000172
:08085A00020403070006000080
:00000001FF
