:10000000F1C000000AC1000008C1000006C10000E4
:1000100004C1000002C1000000C10000FEC00000D9
:10002000FCC00000FAC00000FBC100001AC20000C2
:10003000F4C00000F2C00000F0C00000EEC00000FC
:10004000ECC00000EAC00000E8C00000E6C000000C
:10005000E4C00000E2C00000E0C00000DEC000001C
:10006000DCC00000DAC00000D8C00000D6C000002C
:10007000D4C00000D2C00000D0C00000CEC000003C
:10008000CCC00000CAC00000C8C00000C6C000004C
:10009000C4C00000C2C00000C0C00000BEC000005C
:1000A000BCC00000BAC00000B8C000002126010793
:1000B0000000000000000880808080000000000038
:1000C0000000000000000000010000CC011200024E
:1000D00000003A0122002100004C0109002200002A
:1000E0005C017000030000360104010309042A01C9
:1000F0000A02030904F80030300356004900520098
:1001000054005500410020005300540049004300B2
:100110004B0020004800690067006800200047008D
:10012000720061006400650000000A03530045008E
:1001300047004100000004030904090222000101F4
:1001400000803209040000010300000009211101B0
:1001500000012270000705810340000A050109051E
:10016000A10115002501350045017501950D050911
:100170001901290D81029503810105012507463BDF
:100180000175049501651409398142650095018165
:100190000126FF0046FF0009300931093209357593
:1001A00008950481020600FF09200921092209237C
:1001B000092409250926092709280929092A092BBB
:1001C000950C81020A21269508B102C01201100186
:1001D00000000040C410C08200010102000101C102
:1001E0003600000011241FBECFEFDAE0DEBFCDBF26
:1001F00011E0A0E0B1E0EAE7F8E002C005900D925E
:10020000AA31B107D9F721E0AAE1B1E001C01D92FE
:10021000AD33B207E1F789D02EC3F2CE80911C0135
:10022000823009F446C080912A019091220190FB0E
:1002300080F99091230190FB81F99091240190FB2A
:1002400082F980932A0180912B019091250190FBE6
:1002500081F980932B0180912001882369F080919E
:100260001F0181114BC080911E01882309F44AC0EF
:1002700081E080932C0197C080912101882369F04F
:1002800080911F01811141C080911E01882309F4D2
:1002900044C083E080932C0134C080911F01811100
:1002A00038C080911E0181113CC088E080932C01F0
:1002B00028C080912A019091260190FB80F99091AD
:1002C000220190FB81F99091230190FB82F990919A
:1002D000270190FB83F99091280190FB84F990917C
:1002E000240190FB85F980932A0180912B01909144
:1002F000290190FB80F980932B01A5CF87E08093A3
:100300002C0151C010922C014EC085E080932C012D
:10031000F8CF86E080932C01F4CF84E080932C0109
:10032000F0CF82E080932C01ECCF80E880936100D5
:1003300010926100E4D116D02CD08823E9F32FEF7E
:1003400083ED90E3215080409040E1F700C0000031
:1003500023D0DAD163DF8FE39CE90197F1F700C086
:100360000000F6CF81E08093D70080EA8093D80028
:1003700082E189BD09B400FEFDCF80E98093D800F9
:100380001092E00010921B018CE08093E2007894C0
:10039000089580911B01089543E150E064EB70E003
:1003A0008AE291E05FC280911B018823B9F18FB787
:1003B000F89491E09093E9002091E4002E5C9091F4
:1003C000E80095FD1CC08FBF80911B01882331F18F
:1003D0008091E400821711F131E009C08FBF809154
:1003E0001B018823D9F08091E4008217B9F08FB700
:1003F000F8943093E9009091E80095FFEFCFEAE29E
:10040000F1E091919093F10091E0ED33F907C9F794
:100410009AE39093E8008FBF80E008958FEF0895EE
:100420001F920F920FB60F9211248F938091E100CB
:100430001092E10083FF0FC01092E90081E08093E9
:10044000EB001092EC0082E38093ED0088E0809353
:10045000F00010921B018F910F900FBE0F901F9014
:1004600018951F920F920FB60F9211242F933F935E
:100470004F935F936F937F938F939F93AF93BF93AC
:10048000CF93EF93FF931092E9008091E80083FFF0
:100490003EC0E091F1006091F1002091F100809167
:1004A000F10030E0382B8091F1004091F10090E0B4
:1004B000DC01B42BAD017091F100C091F10082EF2D
:1004C0008093E8006630B1F0653009F4BBC0693054
:1004D00099F1683009F459C061115AC08091E8005F
:1004E00080FFFCCF1092F1001092F1008EEF80930C
:1004F000E80010C067E087EC90E0FC01A591B491A2
:100500002A173B0709F45CC007966150B1F781E2F6
:100510008093EB00FF91EF91CF91BF91AF919F91AD
:100520008F917F916F915F914F913F912F910F909C
:100530000FBE0F901F901895E1112AC020931B0148
:100540008EEF8093E80081E02EED31E08093E900AA
:10055000A9014F5F5F4FF90194919093EB009923AC
:1005600009F4C5C0FA0144914093EC003196E4913E
:100570002D5F3F4FE093ED008F5F853039F78EE1BF
:100580008093EA001092EA00C5CFE03809F465C014
:10059000452B09F0BCCFE13A09F47BC0E13209F008
:1005A000B6CF693009F465C06A3009F4A2C06B3077
:1005B00009F0ADCF209300018EEF8093E800AACF21
:1005C000FC013296A591B4914A175B0709F09CCFC4
:1005D000FC01349645915491FC0136962491872F65
:1005E00090E09C2B8F3F910511F008F04FC08217CF
:1005F00008F44AC06EEF8091E800982F9570D9F307
:1006000082FD88CF322F2134C0F030E4FA01832FED
:1006100094919093F100815031968111F9CF8FEF31
:10062000830F90E00196480F591F231B6093E80049
:100630002111E1CF3034F9F26DCF2111E7CF609372
:10064000E80068CF8EEF8093E8008091E80080FF9B
:10065000FCCF20682093E3005DCF8091E80080FF0D
:10066000FCCF80911B018093F1008EEF8093E80016
:1006700051CF8091E80082FFFCCF8BEF8093E800A0
:100680008EEF8093E80046CF282FB4CF8FEF90E015
:10069000AECF613089F06230F1F0633009F037CFCE
:1006A0008091E80080FFFCCF809100018093F100F1
:1006B0008EEF8093E8002ECF8091E80080FFFCCF82
:1006C000ECEAF0E084918093F100319680E0E43B25
:1006D000F807C1F771CF8091E80080FFFCCF8091CF
:1006E0001A018093F1008EEF8093E80013CF9A01F6
:1006F00043CF30931A018EEF8093E8000BCF80E256
:1007000084B98FEF85B908952D9A8FE891E001970C
:10071000F1F700C0000043B1A1E1B1E020E030E01A
:1007200050E0ED91EE2381F0F0E0E35EFE4FCA0170
:10073000022E02C0959587950A94E2F78170992759
:1007400061E08627817080832F5F3F4F283031051D
:1007500041F72D988FE891E00197F1F700C0000074
:1007600083B1837009F041C043B1A9E0B1E020E05A
:1007700030E050E0ED91EE2381F0F0E0E35EFE4FDB
:10078000CA01022E02C0959587950A94E2F78170FE
:10079000992761E08627817080832F5F3F4F283043
:1007A000310541F72D9A8FE891E00197F1F700C0EC
:1007B00000002D988FE891E00197F1F700C000004C
:1007C0002D9A8FE891E00197F1F700C000002D9875
:1007D0008FE891E00197F1F700C0000083B18F70BE
:1007E00089F081E080931C0108958091230180931A
:1007F0002201809124018093230110922401109200
:100800001C01089582E080931C012D9A8FE891E0ED
:100810000197F1F700C0000043B1A1E0B1E020E092
:1008200030E050E0ED91EE2381F0F0E0E35EFE4F2A
:10083000CA01022E02C0959587950A94E2F781704D
:10084000992761E08627817080832F5F3F4F283092
:10085000310541F72D988FE891E00197F1F700C03D
:1008600000000895FB01DC0102C005900D9241508B
:0A0870005040D8F70895F894FFCF28
:10087A00010C090A0B000000000000000008000536
:0A088A00000102040307000600004D
:00000001FF
