:10000000CBC00000E4C00000E2C00000E0C000007F
:10001000DEC00000DCC00000DAC00000D8C0000074
:10002000D6C00000D4C000004DC200006CC2000069
:10003000CEC00000CCC00000CAC00000C8C0000094
:10004000C6C00000C4C00000C2C00000C0C00000A4
:10005000BEC00000BCC00000BAC00000B8C00000B4
:10006000B6C00000B4C00000B2C00000B0C00000C4
:10007000AEC00000ACC00000AAC00000A8C00000D4
:10008000A6C00000A4C00000A2C00000A0C00000E4
:100090009EC000009CC000009AC0000098C00000F4
:1000A00096C0000094C0000092C000007F7F000056
:1000B0000001000080011200020000250122002141
:1000C0000000370109002200004701390003000049
:1000D0002101040103090411010E02030904E100D6
:1000E0002E2E035300650067006100200047006565
:1000F000006E006500730069007300200043006F0C
:10010000006E0076006500720074006500720000E9
:10011000000E035A00650072006B0065007200005B
:1001200000040309040902220001010080320904CD
:100130000000010300000009211101000122390023
:100140000705810340000A050115000904A1010506
:1001500001750826FF0015000901A10009300931C9
:1001600095028102C005091901290A1500250175AA
:1001700001950A550065008102950175068103C04D
:1001800012011001000000406D0409C200010102CB
:10019000000101C13600000011241FBECFEFDAE0DC
:1001A000DEBFCDBF11E0A0E0B1E0E0E3F8E002C0C7
:1001B00005900D92AA31B107D9F721E0AAE1B1E08B
:1001C00001C01D92AD32B207E1F752D02FC318CF54
:1001D00080912B0190911F0190FB80F9909120015B
:1001E00090FB81F99091210190FB82F9909123017C
:1001F00090FB83F99091240190FB84F99091250163
:1002000090FB85F980932B0180912C019091260120
:1002100090FB80F99091220190FB81F980932C0151
:1002200080911C01882371F01092290180911D0199
:10023000811113C080911E01811116C08FE7809338
:100240002A01FBC080911B01882351F08FEF80931E
:10025000290180911D01882369F310922A01EDC0C4
:100260008FE780932901E2CF8FEF80932A01E5C0C9
:1002700080E8809361001092610080E284B98FEF82
:1002800085B9BAD0D0D08823E9F32FEF63ED80E3AE
:10029000215060408040E1F700C00000C7D02D9A97
:1002A0008FE891E00197F1F700C0000043B1A1E1B0
:1002B000B1E020E030E050E0ED91EE2381F0F0E09D
:1002C000E65EFE4FCA01022E02C0959587950A94FC
:1002D000E2F78170992761E08627817080832F5F24
:1002E0003F4F2830310541F72D988FE891E0019775
:1002F000F1F700C0000083B1837009F045C043B13D
:10030000A9E0B1E020E030E050E0ED91EE2381F093
:10031000F0E0E65EFE4FCA01022E02C09595879579
:100320000A94E2F78170992761E0862781708083C3
:100330002F5F3F4F2830310541F72D9A8FE891E02C
:100340000197F1F700C000002D988FE891E0019728
:10035000F1F700C000002D9A8FE891E00197F1F7C6
:1003600000C000002D988FE891E00197F1F700C0E0
:10037000000083B18F7099F02BDF8FE39CE9019728
:10038000F1F700C000008ACF8091200180931F0107
:10039000809121018093200110922101EDCF2D9AAF
:1003A0008FE891E00197F1F700C0000043B1A1E0B0
:1003B000B1E020E030E050E0ED91EE2381F0F0E09C
:1003C000E65EFE4FCA01022E02C0959587950A94FB
:1003D000E2F78170992761E08627817080832F5F23
:1003E0003F4F2830310541F72D988FE891E0019774
:1003F000F1F700C00000C0CF81E08093D70080EA11
:100400008093D80082E189BD09B400FEFDCF80E968
:100410008093D8001092E000109228018CE0809325
:10042000E2007894089580912801089544E050E016
:100430006CEA70E089E291E0F0C1809128018823A4
:1004400009F43EC08FB7F89491E09093E9002091B1
:10045000E4002E5C9091E80095FD1CC08FBF809158
:100460002801882369F18091E400821749F131E085
:1004700009C08FBF80912801882311F18091E40089
:100480008217F1F08FB7F8943093E9009091E8006B
:1004900095FFEFCF909129019093F10090912A015F
:1004A0009093F10090912B019093F10090912C0189
:1004B0009093F1009AE39093E8008FBF80E0089555
:1004C0008FEF08951F920F920FB60F9211248F9302
:1004D0008091E1001092E10083FF0FC01092E900CB
:1004E00081E08093EB001092EC0082E38093ED00BA
:1004F00088E08093F000109228018F910F900FBE3A
:100500000F901F9018951F920F920FB60F92112403
:100510002F933F934F935F936F937F938F939F930B
:10052000AF93BF93CF93EF93FF931092E900809125
:10053000E80083FF40C06091F1008091F1002091BC
:10054000F1009091F10030E0392B4091F100909151
:10055000F10050E0592B7091F100C091F10092EF41
:100560009093E8008630D1F0853009F4E6C08930F8
:10057000B9F1883009F45DC08111B8C08091E800FC
:1005800080FFFCCF623809F438C180E08093F1002D
:100590001092F1008EEF8093E80010C067E080EBCE
:1005A00090E0FC01A591B4912A173B0709F45CC0C7
:1005B00007966150B1F781E28093EB00FF91EF91D4
:1005C000CF91BF91AF919F918F917F916F915F91EB
:1005D0004F913F912F910F900FBE0F901F90189544
:1005E00061112AC0209328018EEF8093E80081E0FA
:1005F00022E931E08093E900A9014F5F5F4FF901E3
:1006000094919093EB00992309F4F5C0FA01449179
:100610004093EC003196E4912D5F3F4FE093ED0065
:100620008F5F853039F78EE18093EA001092EA00FF
:10063000C5CF603809F48CC0452B09F0BCCF613AB6
:1006400009F4A2C0613209F0B6CF893009F48CC038
:100650008A3009F4DCC08B3009F0ADCF2093000163
:100660008EEF8093E800AACFFC013296A591B49159
:100670004A175B0709F09CCFFC01349645915491D1
:10068000FC0136962491872F90E09C2B8F3F91059B
:1006900011F008F076C0821708F471C06EEF8091F7
:1006A000E800982F9570D9F382FD88CF322F21343E
:1006B000C0F030E4FA01832F94919093F1008150BF
:1006C00031968111F9CF8FEF830F90E00196480F9B
:1006D000591F231B6093E8002111E1CF3034F9F258
:1006E0006DCF2111E7CF6093E80068CF982F9D7FF1
:1006F000913009F0A1CF623009F09ECF232B09F091
:100700005ACF4F779FEF940F943008F054CF9EEF5D
:100710009093E8004093E900833009F44CCF89E1DD
:100720008093EB0081E090E001C0880F4A95EAF7E2
:100730008093EA001092EA0041CF8EEF8093E800A8
:100740008091E80080FFFCCF20682093E30036CF43
:100750008091E80080FFFCCF809128018093F10018
:100760008EEF8093E8002ACF8091E80082FFFCCFD3
:100770008BEF8093E8008EEF8093E8001FCF282F47
:100780008DCF8FEF90E087CF813089F0823039F1C3
:10079000833009F010CF8091E80080FFFCCF80917A
:1007A00000018093F1008EEF8093E80007CF8091E5
:1007B000E80080FFFCCF809129018093F1008091B7
:1007C0002A018093F10080912B018093F1008091A8
:1007D0002C018093F1008EEF8093E800EFCE8091A2
:1007E000E80080FFFCCF809127018093F1008EEF1D
:1007F0008093E800E3CE9A0113CF4093E900809103
:10080000EB0085FB882780F91092E900BFCE30937A
:1008100027018EEF8093E800D1CEFB01DC0102C0FE
:1008200005900D9241505040D8F70895F894FFCFAD
:10083000010C090A0B000000000000000008000580
:0A0840000001020403070006000097
:00000001FF
